:100000000C944D000C946C000C946C000C946C00DF
:100010000C946C000C946C000C946C000C946C00B0
:100020000C946C000C946C000C946C000C946C00A0
:100030000C946C000C94E5000C946C000C946C0017
:100040000C946C000C946C000C946C000C946C0080
:100050000C946C000C946C000C946C000C946C0070
:100060000C946C000C946C000C946C000C946C0060
:100070000C946C000C946C000C946C000C946C0050
:100080000C946C000C946C000C946C0038022602EA
:100090002C02320238023802380211241FBECFEF80
:1000A000D0E4DEBFCDBF11E0A0E0B1E0EAEEF4E0C5
:1000B00000E00BBF02C007900D92A231B107D9F743
:1000C00021E0A2E1B1E001C01D92AA31B207E1F73F
:1000D0000E943E020C9473020C940000CF93DF93B5
:1000E00000D01F92CDB7DEB789837B836A83898175
:1000F0008A3031F48A819B81BC018DE00E946E00C0
:1001000080EC90E0FC018081882F90E0807299273C
:10011000892BB1F386EC90E02981FC01208380E0FB
:1001200090E00F900F900F90DF91CF910895CF93B3
:10013000DF93CDB7DEB781E890E02BE0FC012083B0
:1001400088E890E02DE730E0FC01318320838FE6E2
:1001500090E022E0FC01208384E890E0FC01118221
:10016000108280910E0190910F01A0911001B09129
:1001700011018093130190931401A0931501B09382
:1001800016018FE590E02FE530E0F901208120682D
:10019000FC0120830000DF91CF910895CF93DF937E
:1001A000CDB7DEB781E890E0FC0110820000DF915E
:1001B000CF910895CF93DF93CDB7DEB781E08093E1
:1001C00012010000DF91CF9108951F920F920090CD
:1001D0005F000F92112400905B000F922F933F93CA
:1001E0004F935F936F937F938F939F93AF93BF933F
:1001F000EF93FF93CF93DF93CDB7DEB780911301D9
:1002000090911401A0911501B09116010197A109D7
:10021000B1098093130190931401A0931501B09339
:1002200016018091130190911401A0911501B091D4
:100230001601892B8A2B8B2B91F40E94DA00809176
:100240000E0190910F01A0911001B09111018093C6
:10025000130190931401A0931501B09316010000AF
:10026000DF91CF91FF91EF91BF91AF919F918F91CE
:100270007F916F915F914F913F912F910F900092DD
:100280005B000F9000925F000F901F901895CF9326
:10029000DF9300D000D0CDB7DEB769837A838B833C
:1002A0009C8389819A81AB81BC8180930E0190935C
:1002B0000F01A0931001B093110180910E01909154
:1002C0000F01A0911001B09111018093130190933F
:1002D0001401A0931501B093160100000F900F9028
:1002E0000F900F90DF91CF910895CF93DF931F92DE
:1002F000CDB7DEB780E290E0FC018081882F90E0EE
:100300008170992721E0892B09F020E029838091D1
:100310001801909119018230910571F18330910596
:1003200028F4009779F00197A1F073C0843091050B
:1003300009F456C08430910508F43EC0069709F4CC
:1003400060C067C081E090E090931901809318012C
:1003500068C0109217018981882339F084E090E009
:1003600090931901809318015CC082E090E0909313
:1003700019018093180155C08981882339F084E0E0
:1003800090E0909319018093180148C08091170163
:10039000882339F483E090E0909319018093180149
:1003A0003DC0809117018130C9F581E090E09093C4
:1003B00019018093180132C081E08093170189816F
:1003C000882339F084E090E090931901809318011C
:1003D00028C082E090E0909319018093180121C019
:1003E0008981882339F084E090E09093190180930B
:1003F000180117C086E090E09093190180931801CE
:1004000010C08981882361F010921901109218019F
:1004100007C0109219011092180103C0000001C01A
:1004200000008091180190911901CC01A0E0B0E08A
:1004300040E050E026E030E0841B950B2817390798
:10044000C0F08A5B9F4FFC010C946A0285E290E049
:1004500021E0FC0120830DC085E290E022E0FC0158
:10046000208307C085E290E024E0FC01208301C0E6
:10047000000000000F90DF91CF910895CF93DF939C
:10048000CDB7DEB781E290E0FC01108282E290E01D
:100490002FEFFC01208384E290E02FEFFC0120830A
:1004A00085E290E0FC01108210921901109218016F
:1004B0006CE271E080E090E00E9447010E949700AA
:1004C0000E9475010000809112018823E1F31092CF
:1004D0001201F6CFEE0FFF1F0024001C0BBE079089
:0A04E000F691E02D0994F894FFCF87
:1004EA0000000002000000006E0000000000010091
:0204FA00000000
:00000001FF
