:100000000C9456000C9475000C9475000C947500BB
:100010000C9475000C9475000C9475000C9475008C
:100020000C9475000C9475000C9475000C9475007C
:100030000C9475000C94EE000C9475000C947500F3
:100040000C9475000C9475000C9475000C9475005C
:100050000C9475000C9475000C9475000C9475004C
:100060000C9475000C9475000C9475000C9475003C
:100070000C9475000C9475000C9475000C9475002C
:100080000C9475000C9475000C947500A001A701E8
:100090005102C6010F02650204024602A702DA02FB
:1000A000D402DA02DA02CD02AD02BD0211241FBE73
:1000B000CFEFD0E4DEBFCDBF11E0A0E0B1E0E4E5DA
:1000C000F6E000E00BBF02C007900D92A431B1072B
:1000D000D9F721E0A4E1B1E001C01D92AD31B20732
:1000E000E1F70E94E4020C9428030C940000CF93E3
:1000F000DF9300D01F92CDB7DEB789837B836A83FD
:1001000089818A3031F48A819B81BC018DE00E9413
:10011000770080EC90E0FC018081882F90E0807275
:100120009927892BB1F386EC90E02981FC0120838B
:1001300080E090E00F900F900F90DF91CF910895A5
:10014000CF93DF93CDB7DEB781E890E02BE0FC01E1
:10015000208388E890E02DE730E0FC0131832083A4
:100160008FE690E022E0FC01208384E890E0FC012F
:100170001182108280910F0190911001A0911101C4
:10018000B09112018093170190931801A093190167
:10019000B0931A018FE590E02FE530E0F90120815E
:1001A0002068FC0120830000DF91CF910895CF9358
:1001B000DF93CDB7DEB781E890E0FC01108200004C
:1001C000DF91CF910895CF93DF93CDB7DEB781E074
:1001D000809314010000DF91CF9108951F920F9238
:1001E00000905F000F92112400905B000F922F93FC
:1001F0003F934F935F936F937F938F939F93AF93AF
:10020000BF93EF93FF93CF93DF93CDB7DEB780918A
:10021000170190911801A0911901B0911A0101974D
:10022000A109B1098093170190931801A0931901B6
:10023000B0931A018091170190911801A0911901B2
:10024000B0911A01892B8A2B8B2B91F40E94E30029
:1002500080910F0190911001A0911101B0911201B4
:100260008093170190931801A0931901B0931A017C
:100270000000DF91CF91FF91EF91BF91AF919F91DE
:100280008F917F916F915F914F913F912F910F903F
:1002900000925B000F9000925F000F901F901895E6
:1002A000CF93DF9300D000D0CDB7DEB769837A83D8
:1002B0008B839C8389819A81AB81BC8180930F0160
:1002C00090931001A0931101B093120180910F013E
:1002D00090911001A0911101B0911201809317012A
:1002E00090931801A0931901B0931A0100000F9088
:1002F0000F900F900F90DF91CF910895CF93DF93E0
:100300001F92CDB7DEB780E290E0FC01808180953E
:100310008370898380911B0190911C01CC01A0E026
:10032000B0E040E050E027E030E0841B950B281758
:10033000390708F4EBC08A5B9F4FFC010C941F0344
:1003400081E090E090931C0180931B01EBC08981B8
:10035000833039F485E090E090931C0180931B0179
:10036000DAC08981813039F486E090E090931C01F5
:1003700080931B01D0C08981823009F0CCC087E016
:1003800090E090931C0180931B01C5C0898181304E
:10039000A9F481E080931601809115018A3039F427
:1003A00086E090E090931C0180931B01B6C083E02F
:1003B00090E090931C0180931B01AFC0898188233A
:1003C00039F481E090E090931C0180931B01A5C05B
:1003D00080E290E0FC018081823039F487E090E097
:1003E00090931C0180931B0198C08981833009F090
:1003F00094C088E290E0FC01108285E090E0909348
:100400001C0180931B0189C083E090E090931C0144
:1004100080931B01109215011092160183C08981EF
:100420008230A9F481E080931601809115018A3011
:1004300039F487E090E090931C0180931B016FC01A
:1004400084E090E090931C0180931B0168C0898137
:10045000882339F481E090E090931C0180931B0184
:100460005EC08981813039F486E090E090931C0170
:1004700080931B0154C08981833009F050C085E00E
:1004800090E090931C0180931B0149C084E090E0B0
:1004900090931C0180931B0110921501109216017C
:1004A00041C08981813039F486E090E090931C014D
:1004B00080931B0136C08981823099F587E090E0F6
:1004C00090931C0180931B012CC080E290E0FC0102
:1004D0008081833039F485E090E090931C01809313
:1004E0001B0120C080E290E0FC018081882339F468
:1004F00081E090E090931C0180931B0113C081E088
:1005000090E090931C0180931B010CC010921C0181
:1005100010921B0107C0000005C0000003C00000CE
:1005200001C0000080911B0190911C01CC01A0E052
:10053000B0E040E050E027E030E0841B950B281746
:10054000390790F1825B9F4FFC010C941F0385E2F9
:1005500090E027E0FC01208332C080910E018930B9
:1005600058F580910E018F5F80930E0185E290E037
:1005700020910E01FC0120831FC080910E01882371
:10058000E9F080910E01815080930E0185E290E0A8
:1005900020910E01FC01208311C085E290E0FC0156
:1005A000108210920E010BC085E290E027E0FC0162
:1005B000208305C0000003C0000001C0000000004F
:1005C0000F90DF91CF910895CF93DF93CDB7DEB732
:1005D00081E290E0FC01108282E290E02FEFFC01CA
:1005E000208384E290E02FEFFC01208385E290E0FD
:1005F000FC01108210921C0110921B0164E670E055
:1006000080E090E00E9450010E94A0000E947E01C4
:100610000000809114018823E1F31092140180916D
:100620001601813029F4809115018F5F80931501A7
:1006300085E290E020910E01FC012083E7CFEE0FD0
:10064000FF1F0024001C0BBE0790F691E02D0994BB
:04065000F894FFCF4C
:100654000000000200000000770000000000070115
:040664000000000092
:00000001FF
